{
  "contractName": "MyToken",
  "abi": [
    {
      "inputs": [
        {
          "internalType": "uint256",
          "name": "_initialSupply",
          "type": "uint256"
        }
      ],
      "payable": false,
      "stateMutability": "nonpayable",
      "type": "constructor"
    },
    {
      "anonymous": false,
      "inputs": [
        {
          "indexed": true,
          "internalType": "address",
          "name": "_owner",
          "type": "address"
        },
        {
          "indexed": true,
          "internalType": "address",
          "name": "_spender",
          "type": "address"
        },
        {
          "indexed": false,
          "internalType": "uint256",
          "name": "_value",
          "type": "uint256"
        }
      ],
      "name": "Approval",
      "type": "event"
    },
    {
      "anonymous": false,
      "inputs": [
        {
          "indexed": true,
          "internalType": "address",
          "name": "_from",
          "type": "address"
        },
        {
          "indexed": true,
          "internalType": "address",
          "name": "_to",
          "type": "address"
        },
        {
          "indexed": false,
          "internalType": "uint256",
          "name": "_value",
          "type": "uint256"
        }
      ],
      "name": "Transfer",
      "type": "event"
    },
    {
      "constant": true,
      "inputs": [
        {
          "internalType": "address",
          "name": "",
          "type": "address"
        },
        {
          "internalType": "address",
          "name": "",
          "type": "address"
        }
      ],
      "name": "allowance",
      "outputs": [
        {
          "internalType": "uint256",
          "name": "",
          "type": "uint256"
        }
      ],
      "payable": false,
      "stateMutability": "view",
      "type": "function"
    },
    {
      "constant": true,
      "inputs": [
        {
          "internalType": "address",
          "name": "",
          "type": "address"
        }
      ],
      "name": "balanceOf",
      "outputs": [
        {
          "internalType": "uint256",
          "name": "",
          "type": "uint256"
        }
      ],
      "payable": false,
      "stateMutability": "view",
      "type": "function"
    },
    {
      "constant": true,
      "inputs": [],
      "name": "name",
      "outputs": [
        {
          "internalType": "string",
          "name": "",
          "type": "string"
        }
      ],
      "payable": false,
      "stateMutability": "view",
      "type": "function"
    },
    {
      "constant": true,
      "inputs": [],
      "name": "standard",
      "outputs": [
        {
          "internalType": "string",
          "name": "",
          "type": "string"
        }
      ],
      "payable": false,
      "stateMutability": "view",
      "type": "function"
    },
    {
      "constant": true,
      "inputs": [],
      "name": "symbol",
      "outputs": [
        {
          "internalType": "string",
          "name": "",
          "type": "string"
        }
      ],
      "payable": false,
      "stateMutability": "view",
      "type": "function"
    },
    {
      "constant": true,
      "inputs": [],
      "name": "totalSupply",
      "outputs": [
        {
          "internalType": "uint256",
          "name": "",
          "type": "uint256"
        }
      ],
      "payable": false,
      "stateMutability": "view",
      "type": "function"
    },
    {
      "constant": false,
      "inputs": [
        {
          "internalType": "address",
          "name": "_to",
          "type": "address"
        },
        {
          "internalType": "uint256",
          "name": "_value",
          "type": "uint256"
        }
      ],
      "name": "transfer",
      "outputs": [
        {
          "internalType": "bool",
          "name": "success",
          "type": "bool"
        }
      ],
      "payable": false,
      "stateMutability": "nonpayable",
      "type": "function"
    },
    {
      "constant": false,
      "inputs": [
        {
          "internalType": "address",
          "name": "_spender",
          "type": "address"
        },
        {
          "internalType": "uint256",
          "name": "_value",
          "type": "uint256"
        }
      ],
      "name": "approve",
      "outputs": [
        {
          "internalType": "bool",
          "name": "success",
          "type": "bool"
        }
      ],
      "payable": false,
      "stateMutability": "nonpayable",
      "type": "function"
    },
    {
      "constant": false,
      "inputs": [
        {
          "internalType": "address",
          "name": "_from",
          "type": "address"
        },
        {
          "internalType": "address",
          "name": "_to",
          "type": "address"
        },
        {
          "internalType": "uint256",
          "name": "_value",
          "type": "uint256"
        }
      ],
      "name": "transferFrom",
      "outputs": [
        {
          "internalType": "bool",
          "name": "auccess",
          "type": "bool"
        }
      ],
      "payable": false,
      "stateMutability": "nonpayable",
      "type": "function"
    }
  ],
  "bytecode": "0x60806040526040518060400160405280600781526020017f4d79546f6b656e000000000000000000000000000000000000000000000000008152506000908051906020019061004f929190610179565b506040518060400160405280600581526020017f4d59544b4e0000000000000000000000000000000000000000000000000000008152506001908051906020019061009b929190610179565b506040518060400160405280600c81526020017f4d79546f6b656e2076312e300000000000000000000000000000000000000000815250600290805190602001906100e7929190610179565b503480156100f457600080fd5b50604051610d94380380610d948339818101604052602081101561011757600080fd5b81019080805190602001909291905050508060038190555080600460003373ffffffffffffffffffffffffffffffffffffffff1673ffffffffffffffffffffffffffffffffffffffff168152602001908152602001600020819055505061021e565b828054600181600116156101000203166002900490600052602060002090601f016020900481019282601f106101ba57805160ff19168380011785556101e8565b828001600101855582156101e8579182015b828111156101e75782518255916020019190600101906101cc565b5b5090506101f591906101f9565b5090565b61021b91905b808211156102175760008160009055506001016101ff565b5090565b90565b610b678061022d6000396000f3fe608060405234801561001057600080fd5b50600436106100935760003560e01c80635a3b7e42116100665780635a3b7e421461022557806370a08231146102a857806395d89b4114610300578063a9059cbb14610383578063dd62ed3e146103e957610093565b806306fdde0314610098578063095ea7b31461011b57806318160ddd1461018157806323b872dd1461019f575b600080fd5b6100a0610461565b6040518080602001828103825283818151815260200191508051906020019080838360005b838110156100e05780820151818401526020810190506100c5565b50505050905090810190601f16801561010d5780820380516001836020036101000a031916815260200191505b509250505060405180910390f35b6101676004803603604081101561013157600080fd5b81019080803573ffffffffffffffffffffffffffffffffffffffff169060200190929190803590602001909291905050506104ff565b604051808215151515815260200191505060405180910390f35b6101896105f1565b6040518082815260200191505060405180910390f35b61020b600480360360608110156101b557600080fd5b81019080803573ffffffffffffffffffffffffffffffffffffffff169060200190929190803573ffffffffffffffffffffffffffffffffffffffff169060200190929190803590602001909291905050506105f7565b604051808215151515815260200191505060405180910390f35b61022d610862565b6040518080602001828103825283818151815260200191508051906020019080838360005b8381101561026d578082015181840152602081019050610252565b50505050905090810190601f16801561029a5780820380516001836020036101000a031916815260200191505b509250505060405180910390f35b6102ea600480360360208110156102be57600080fd5b81019080803573ffffffffffffffffffffffffffffffffffffffff169060200190929190505050610900565b6040518082815260200191505060405180910390f35b610308610918565b6040518080602001828103825283818151815260200191508051906020019080838360005b8381101561034857808201518184015260208101905061032d565b50505050905090810190601f1680156103755780820380516001836020036101000a031916815260200191505b509250505060405180910390f35b6103cf6004803603604081101561039957600080fd5b81019080803573ffffffffffffffffffffffffffffffffffffffff169060200190929190803590602001909291905050506109b6565b604051808215151515815260200191505060405180910390f35b61044b600480360360408110156103ff57600080fd5b81019080803573ffffffffffffffffffffffffffffffffffffffff169060200190929190803573ffffffffffffffffffffffffffffffffffffffff169060200190929190505050610b0d565b6040518082815260200191505060405180910390f35b60008054600181600116156101000203166002900480601f0160208091040260200160405190810160405280929190818152602001828054600181600116156101000203166002900480156104f75780601f106104cc576101008083540402835291602001916104f7565b820191906000526020600020905b8154815290600101906020018083116104da57829003601f168201915b505050505081565b600081600560003373ffffffffffffffffffffffffffffffffffffffff1673ffffffffffffffffffffffffffffffffffffffff16815260200190815260200160002060008573ffffffffffffffffffffffffffffffffffffffff1673ffffffffffffffffffffffffffffffffffffffff168152602001908152602001600020819055508273ffffffffffffffffffffffffffffffffffffffff163373ffffffffffffffffffffffffffffffffffffffff167f8c5be1e5ebec7d5bd14f71427d1e84f3dd0314c0f7b2291e5b200ac8c7c3b925846040518082815260200191505060405180910390a36001905092915050565b60035481565b6000600460008573ffffffffffffffffffffffffffffffffffffffff1673ffffffffffffffffffffffffffffffffffffffff1681526020019081526020016000205482111561064557600080fd5b600560008573ffffffffffffffffffffffffffffffffffffffff1673ffffffffffffffffffffffffffffffffffffffff16815260200190815260200160002060003373ffffffffffffffffffffffffffffffffffffffff1673ffffffffffffffffffffffffffffffffffffffff168152602001908152602001600020548211156106ce57600080fd5b81600460008673ffffffffffffffffffffffffffffffffffffffff1673ffffffffffffffffffffffffffffffffffffffff1681526020019081526020016000206000828254039250508190555081600460008573ffffffffffffffffffffffffffffffffffffffff1673ffffffffffffffffffffffffffffffffffffffff1681526020019081526020016000206000828254019250508190555081600560008673ffffffffffffffffffffffffffffffffffffffff1673ffffffffffffffffffffffffffffffffffffffff16815260200190815260200160002060003373ffffffffffffffffffffffffffffffffffffffff1673ffffffffffffffffffffffffffffffffffffffff168152602001908152602001600020600082825403925050819055508273ffffffffffffffffffffffffffffffffffffffff168473ffffffffffffffffffffffffffffffffffffffff167fddf252ad1be2c89b69c2b068fc378daa952ba7f163c4a11628f55a4df523b3ef846040518082815260200191505060405180910390a3600190509392505050565b60028054600181600116156101000203166002900480601f0160208091040260200160405190810160405280929190818152602001828054600181600116156101000203166002900480156108f85780601f106108cd576101008083540402835291602001916108f8565b820191906000526020600020905b8154815290600101906020018083116108db57829003601f168201915b505050505081565b60046020528060005260406000206000915090505481565b60018054600181600116156101000203166002900480601f0160208091040260200160405190810160405280929190818152602001828054600181600116156101000203166002900480156109ae5780601f10610983576101008083540402835291602001916109ae565b820191906000526020600020905b81548152906001019060200180831161099157829003601f168201915b505050505081565b600081600460003373ffffffffffffffffffffffffffffffffffffffff1673ffffffffffffffffffffffffffffffffffffffff168152602001908152602001600020541015610a0457600080fd5b81600460003373ffffffffffffffffffffffffffffffffffffffff1673ffffffffffffffffffffffffffffffffffffffff1681526020019081526020016000206000828254039250508190555081600460008573ffffffffffffffffffffffffffffffffffffffff1673ffffffffffffffffffffffffffffffffffffffff168152602001908152602001600020600082825401925050819055508273ffffffffffffffffffffffffffffffffffffffff163373ffffffffffffffffffffffffffffffffffffffff167fddf252ad1be2c89b69c2b068fc378daa952ba7f163c4a11628f55a4df523b3ef846040518082815260200191505060405180910390a36001905092915050565b600560205281600052604060002060205280600052604060002060009150915050548156fea265627a7a7231582051fbdd061a390045f12b2e69ce344f017b2bc659744523704c7487afad3489a864736f6c63430005100032",
  "source": "pragma solidity ^0.5.16; // declare version of solidity\n\ncontract MyToken {\n\t\n\t\n\tstring public name = \"MyToken\"; // name; Name is a part of ERC-20\n\tstring public symbol = \"MYTKN\"; // symbol; Symbol is a part of ERC-20\n\tstring public standard = \"MyToken v1.0\"; // standard; Standard is not a part of ERC-20 implementation\n\tuint256 public totalSupply;\t// global state variable made public, will be written to blockchain. Variable name and type comes from ERC-20 standard.\n\t\t\t\t\t\t\t\t// when variables are declared public they will have functions associated with them from the ERC-20 standard.\n\t\t\t\t\t\t\t\t// you can view the variables that have associated functions at https://github.com/ethereum/EIPs/blob/master/EIPS/eip-20.md \n\t\n\t// ERC-20 documentation states we must trigger a transfer event\n\t// \"note: Transfers of 0 values MUST be treated as normal transfers and fire the Transfer event.\"\n\t// contract will emit this transfer event whenever a transfer is triggered, we can listen to events triggered by _from and _to accounts\n\tevent Transfer(\n\t\taddress indexed _from,\t// account that sent transaction\n\t\taddress indexed _to,\t// account that recevied transaction\n\t\tuint256 _value\t\t\t// amount sent\n\t);\n\n\t//approve event - events get logged into transaction logs\n\tevent Approval(\n\t\taddress indexed _owner,\t// i the owner account A approve, account B the spender to transfer C tokens\n\t\taddress indexed _spender,\n\t\tuint256 _value\n\t\t);\n\n\tmapping(address => uint256) public balanceOf; \t// map structure called balanceOf.\n\t\t\t\t\t\t\t\t\t\t\t\t\t// key==address and return value==uint256, which is balance of address\n\t\t\t\t\t\t\t\t\t\t\t\t\t// anytime a token is bought or transferred this mapping is responsible for knowing who has each token \n\t// allowence\n\tmapping(address => mapping(address => uint256)) public allowance;\t// nested mapping\n\t\t\t\t\t\t\t\t\t\t\t\t\t\t\t\t\t\t// mapping(address (my account, all my approvals are tracked by this key) => mapping(address (account that i approve) => uint256 (approved amount))) \n\n\n\t// constructor for smart contract\n\tconstructor(uint256 _initialSupply) public {  \t// public = visibility of function\n\t\t\t\t\t\t\t\t\t\t\t\t\t// use of `function function_name() public{--}` is depreciated, newer versions of Solidity requires `constructor() public{--}`\n\t\t// set the tokkens\t\t\t\t\t\t\t\t\t\t\n\t\ttotalSupply = _initialSupply; \t// total number of tokens that exist\n\t\t\t\t\t\t\t\t\t\t// convention is to use underscore for local variables. Not state/global variables\n\t\t// allocate the inital supply\n\t\tbalanceOf[msg.sender] = _initialSupply;\t// msg.sender is the account that deployed the contract\n\t\t\t\t\t\t\t\t\t\t\t\t// msg is a global variable in Solidity that has diffrent values, in this case sender is the address that the function calls. \n\t\t\t\t\t\t\t\t\t\t\t\t// when we run migrations in devlopment it will be the first account in Ganache which Truffle will default to.\n\t\t\t\t\t\t\t\t\t\t\t\t// whats happening is that we write the balance of the first account to whatever initalSupply we initalize our contract with.\n\t\t\t\t\t\t\t\t\t\t\t\t// this function associated with the balanceOf public variable provided by the ERC-20 standard    \n\t}\n\n\t// transfer function\n\tfunction transfer(address _to, uint256 _value) public returns (bool success) {  // address we want to transfer to, and number of tokens we want to transfer \n\t\t// exception if account does not have enough\n\t\trequire(balanceOf[msg.sender] >= _value); \t// `require` is going to allow function execution to continue if statment is true, if false it will throw an error and stop function execution\n\t\t\t\t\t\t\t\t\t\t\t\t\t// msg.sender -> the person whose calling function; here we read balance from persons account\n\t\t\t\t\t\t\t\t\t\t\t\t\t// since we are writing to blockchain, we will be using gas, if statment evaluates to false, unused gas will be refunded to sender\n\t\t//Transfer the balance\n\t\tbalanceOf[msg.sender] -= _value; // decrement balance of sender by amount sent\n\t\tbalanceOf[_to] += _value; // increment balance of recevier by amount received\n\n\t\t// trigger Transfer Event\n\t\temit Transfer(msg.sender, _to, _value); //msg.sender is account tokens are coming from\n\n\t\t// return an bool\n\t\treturn true;\n\n\t}\n\n\t// approve - approves a delegated transfer\n\tfunction approve(address _spender, uint256 _value) public returns (bool success) { \t// we approve _spender account to spend _value amount of tokens\n\t\t\t\t\t\t\t\t\t\t\t\t\t\t\t\t\t\t\t\t\t\t// if we are account A we want to approve account B to spend X amount of tokens\n\t\t// allowence\n\t\tallowance[msg.sender][_spender] = _value;\n\n\t\t// approval event\n\t\temit Approval(msg.sender, _spender, _value);\t//msg.sender = account thats calling the function (_owner)\n\n\t\treturn true;\t\t\t\t\t\t\t\t\t\t\t\t\t\t\t\t\t\t\t\t\t\t\n\t}\n\n\t// transferFrom - preforms delegated transfer\n\tfunction transferFrom(address _from, address _to, uint256 _value) public returns (bool auccess) {\n\n\t\t// require _from has enough tokens\n\t\trequire(_value <= balanceOf[_from]);\n\t\t\n\t\t// require allowance is big enough\n\t\trequire(_value <= allowance[_from][msg.sender]);\t// were reading out of allowance mapping\n\t\t\n\t\t// change the balance\n\t\tbalanceOf[_from] -= _value;\n\t\tbalanceOf[_to] += _value;\n\t\t\n\t\t// update the allowance\n\t\tallowance[_from][msg.sender] -= _value;\t//msg.sender = the person spending the tokens \n\t\t\n\t\t// transfer event\n\t\temit Transfer(_from, _to, _value);\n\t\t\n\t\t// return a boolean\n\t\treturn true;\n\n\t}\n\n\n\n\n\n\n\n\n\n\n\n\n\n\n}",
  "sourcePath": "/Users/tahmidzaman/Desktop/Ethereum Token/contracts/MyToken.sol",
  "compiler": {
    "name": "solc",
    "version": "0.5.16+commit.9c3226ce.Emscripten.clang"
  },
  "schemaVersion": "3.3.4",
  "updatedAt": "2021-12-19T04:35:16.661Z",
  "networkType": "ethereum",
  "devdoc": {
    "methods": {}
  },
  "userdoc": {
    "methods": {}
  }
}