{
  "contractName": "MyToken",
  "abi": [
    {
      "inputs": [],
      "payable": false,
      "stateMutability": "nonpayable",
      "type": "constructor"
    },
    {
      "constant": true,
      "inputs": [],
      "name": "totalSupply",
      "outputs": [
        {
          "internalType": "uint256",
          "name": "",
          "type": "uint256"
        }
      ],
      "payable": false,
      "stateMutability": "view",
      "type": "function"
    }
  ],
  "bytecode": "0x6080604052348015600f57600080fd5b50620f42406000819055506084806100286000396000f3fe6080604052348015600f57600080fd5b506004361060285760003560e01c806318160ddd14602d575b600080fd5b60336049565b6040518082815260200191505060405180910390f35b6000548156fea265627a7a7231582045dc7b5f27176703e24e4cfab81f67e5b05070c067360e7cf607dcbcc90ed82d64736f6c63430005100032",
  "source": "pragma solidity ^0.5.16; //Declare version of solidity\n\ncontract MyToken {\n\t//Constructor\n\t//Set the tokens\n\t//Read total tokens\n\n\tuint256 public totalSupply; //Global state variable made public, will be written to blockchain. Variable name and type comes from ERC-20 standard.\n\t\t\t\t\t\t\t\t//https://github.com/ethereum/EIPs/blob/master/EIPS/eip-20.md\n\t//Constructor\n\tconstructor() public { //public = visibility of function\n\t\ttotalSupply = 1000000; //Total number of tokens that exist\n\t}\n\n}",
  "sourcePath": "/Users/tahmidzaman/Desktop/token_sale/contracts/myToken.sol",
  "compiler": {
    "name": "solc",
    "version": "0.5.16+commit.9c3226ce.Emscripten.clang"
  },
  "schemaVersion": "3.3.4",
  "updatedAt": "2021-03-31T03:07:48.309Z",
  "networkType": "ethereum",
  "devdoc": {
    "methods": {}
  },
  "userdoc": {
    "methods": {}
  }
}